:100000000DC01AC023C018C017C016C015C014C038
:100010002CC012C008040C050D07000011241FBEDF
:10002000CFE9CDBF20E0A0E6B0E001C01D92A73629
:10003000B207E1F72BD0F6C0E3CFEBE2F1E0319766
:10004000F1F700C000000197C1F708951F920F92C9
:100050000FB60F9211248F938BB78F7D8BBF8F912B
:100060000F900FBE0F901F901895EF93EFB7EF937F
:100070000F93E2E600810D4E02C000810F4F019305
:10008000E0F70F91EF91EFBFEF91189582E083BFFA
:1000900083E08FBD80E481BD789411BC16B885B72C
:1000A000877E806185BF80E185BB80E090E085D060
:1000B0002FE3822725E49227BC0161707727719591
:1000C000619571096627747B9695879568277927CE
:1000D000709361006093600080E090E071D0F0E187
:1000E000BF2EA0E2AA2EBFE09B2EC6E0EC2EF12C84
:1000F0000AE110E017BAB8BAF894A895AABE8BB76F
:1001000080628BBF85B7806285BF80B7836080BF08
:100110008E7F80BF7894889585B78F7D85BF7894D2
:1001200097BAB499E7CF62E3C62ED12C40E0209174
:10013000600030916100C901817099279195819586
:1001400091098827947B3695279528273927C90157
:10015000B70154D0EC01481771F33093610020933C
:100160006000FC01EC5EFF4FE491E061E8BBC6017A
:1001700064DFE5E0CE0ED11CF6E9CF16D10411F014
:100180004C2FD5CF88EE93E058DF84E0D82EDD27C2
:10019000CC5EDF4FDA94DD2009F4ACCFF801849116
:1001A000806188BB8AEF90E048DFFE018491806126
:1001B00088BB8AEF90E041DFEDCFA8E142E005C0C7
:1001C00010D0272F0FC0A82F862FE82FE199FECF40
:1001D00005C0EEBBE09AE3950DB20D924150C8F711
:1001E0000895262FE199FECF1CBA8EBB2DBB0FB60A
:1001F000F894E29AE19A0FBE01960895AA1BBB1BE0
:1002000051E107C0AA1FBB1FA617B70710F0A61B16
:10021000B70B881F991F5A95A9F780959095BC0137
:08022000CD010895F894FFCF11
:00000001FF
